:020000040800F2
:10000000B820002425001008211E1008991A0008A5
:10001000191E1008490A0008812610080000000077
:10002000000000000000000000000000F92B0008A4
:100030000905100800000000C92A0008012C00086A
:100040003F0010083F0010083F0010083F00100854
:100050003F0010083F0010083F0010083F00100844
:100060003F0010083F0010083F0010083F00100834
:100070003F0010083F0010083F0010083F00100824
:100080003F0010083F0010083F0010083F00100814
:100090003F0010083F0010083F0010083F00100804
:1000A0003F0010083F0010083F0010083F001008F4
:1000B0003F0010083F0010083F0010083F001008E4
:1000C0003F0010083F0010083F0010083F001008D4
:1000D0003F0010083F0010083F0010083F001008C4
:1000E0003F0010083F001008000000003F0010080B
:1000F0003F0010083F0010083F0010083F001008A4
:100100003F0010083F0010083F0010083F00100893
:100110003F0010083F0010083F0010083F00100883
:100120003F0010083F0010083F0010083F00100873
:100130003F0010083F0010083F0010083F00100863
:1001400000000000000000000000000000000000AF
:100150003F0010083F0010083F0010083F00100843
:100160003F0010083F0010083F0010083F00100833
:100170003F0010083F0010083F001008000000007A
:100180003F0010083F0010083F0010083F00100813
:100190003F0010083F0010083F0010083F00100803
:1001A0003F0010083F0010083F0010083F001008F3
:1001B0003F0010083F0010083F0010083F001008E3
:1001C0003F0010083F0010083F0010083F001008D3
:1001D0003F0010083F0010083F0010083F001008C3
:1001E0003F0010083F0010083F0010083F001008B3
:1001F0003F0010083F0010083F0010083F001008A3
:100200003F0010083F0010083F0010083F00100892
:100210003F0010083F0010083F0010083F00100882
:100220003F0010083F0010083F00100800000000C9
:100230003F0010083F001008000000003F001008B9
:100240003F0010083F0010083F0010083F00100852
:100250003F0010083F0010083F0010083F00100842
:100260003F0010083F0010083F0010083F00100832
:100270003F0010083F0010083F0010080000000079
:100280003F0010083F0010083F0010080000000069
:10029000000000003F00100800F002F8FFF0B2FE7E
:1002A00014A696E8000CB244B344DA4501D1FFF03D
:1002B000A9FEBAE80F000FA696E83000A5EB0405EA
:1002C00004EB0607AAEB0704A7F101074FEA15158F
:1002D0004FEA3414A4F10104AC4201D3FFF092FEC2
:1002E00013F0010F18BFFB1A43F0010300F001F8EF
:1002F000DBE71847003C0000203C0000103A24BF18
:1003000078C878C1FAD8520724BF30C830C144BF7A
:1003100004680C6070470000704700000023002450
:1003200000250026103A28BF78C1FBD8520728BF05
:1003300030C148BF0B607047662903F038856429D7
:1003400000F04280002070471FB503F023FD00F04D
:1003500099FA04000020002103F0FEFCE0601FBDBC
:100360000FB4044910B503AA029800F079FA10BC42
:100370005DF814FB7C00002470B5044685690068B4
:10038000C10601D5302600E02026C00707D070BD89
:10039000D4E9012130469047206A401C20626D1E3E
:1003A000F6D570BD70B5044685690078C00707D1E1
:1003B00070BDD4E9012120209047206A401C2062B2
:1003C0006D1EF6D570BD00002DE9F04106460024F3
:1003D00010687529314616A510D0AFF300800028AB
:1003E00002DA404213A507E031688A0701D512A559
:1003F00002E0490704D511A5012401E0AFF3008014
:1004000000210A2206F1240709E0B0FBF2FCB0FB50
:10041000F2F302FB1C00303078541846491C0028C7
:10042000F3D123462A463046BDE8F041FFF065BFD0
:10043000000000002D0000002B0000002000000044
:1004400070472DE9FF4F0C461E464FF0FF378BB02B
:10045000D2E90001DDF860800A908A46C1F30A55AE
:1004600005B93D46002108464FF00000BAF1000FE3
:1004700000F4400005DA00EB80004FF4400101EA8F
:1004800050004FEA9059B9F1010F00DDB9460A98C2
:1004900050EA4A000ED044F61050A5F2FF3545430D
:1004A0002F14B8F1000F1ED07542291E1EDDC9F1B0
:1004B00000021CE0B8F1010F4FF0000001D0302124
:1004C00003E0F24305E02154401CB042FBDB304620
:1004D0000022002121540B99C1F80880C1E90020B5
:1004E0000FB0BDE8F08FBD1B6D1CDEE74A4600DA99
:1004F000694206A800F028FA06AB93E8070003ABB0
:1005000083E8070050460A9903F08AFB8DE807004C
:10051000A0F500501F3800900398002D0ADD42F22C
:100520001F014A460844002303A90390684603F0CC
:10053000E9FB09E0A0F500504A461F38002303A953
:100540000390684603F14AFA8DE807000004000CA6
:1005500003D04FF0FF30410800E01046B8F1000F23
:1005600003D00022009215461EE0751E05D400F04F
:100570008DF9303262556D1EF9D5B346012208431C
:1005800002D000227F1C04E02078302801D1002214
:100590007F1E002A099784D01DE0112D07DA00F094
:1005A00075F9303262556D1C50EA0102F5D10843ED
:1005B00002D00098C8B10EE00021681E05E0235C5F
:1005C000625C63542254401E491C8142F7DBAB46F7
:1005D000A81B401E0990002004F80B000B98099AF4
:1005E000C0F80880C0E9002B7AE711264FF0000818
:1005F00057E72DE9F04F88460446D21D22F0070147
:1006000091B0D1E90001CDE90A0103F121FB0246D5
:100610000B98C00F01D02D2007E02068810701D57D
:100620002B2002E0202101EAC000032A099001D01A
:10063000072A05DB034641462046FFF0BBFE0BE1DF
:100640002078800601D5E06900E00620B8F1650F4A
:10065000814606D0B8F1660F18D0B8F1670F70D197
:1006600031E00020B9F1110F009001DB112301E00E
:1006700009F101030AAA01A90CA8FFF7E2FEDDE9CE
:100680000C70002609F10105834647E001204B4626
:1006900000904FF000470AAA01A90CA8FFF7D1FE6D
:1006A000DDE90DB00C995D46002610B909F1010095
:1006B0000D18B9EB050003D4C0F1FF3609F10105AF
:1006C000A5EB09002BE0B9F1010F01DA4FF00109A8
:1006D0000020B9F1110F0090484601DD112300E020
:1006E00003460AAA01A90CA8FFF7ABFEDDE90C70CE
:1006F0004D4600268346207800070AD4AB4500DA31
:100700005D4601A8012D04DD411911F8011C3029B5
:1007100007D04F4502DA17F1040F04DA01208246B0
:100720000FE06D1EEEE7002F02DCED1B3E4403E000
:10073000781CA84200DD7D1CB81B00F1010A4FF0B7
:1007400000472078000703D4AA4501DB4FF0FF3AA9
:100750000021B7F1004F0DF143088DF8431024D06C
:1007600002202B23002F01DA7F422D230A21021EB3
:10077000A0F1010000DC5FB197FBF1FC97FBF1F207
:1007800001FB1C7C17460CF1300C08F801CDEEE79C
:10079000A8F1010003702188090501D5452100E079
:1007A0006521A0F1010800F8011C09980FA9A1EB2F
:1007B0000807FF1D00B10120411901EBEA70A16992
:1007C0003844081A401EA0612078C00602D4204692
:1007D000FFF7D2FD099828B1D4E901219047206A9A
:1007E000401C20622078C00622D52046FFF7C4FDB9
:1007F0001EE0002E04DBB34502DD01A8805D00E0B1
:100800003020D4E901219047206A401C2062761CE8
:10081000AAF101005FEA000A0AD100F033F8C068CB
:100820000168405CD4E901219047206A401C2062A5
:10083000281EA5F10105DCDC07E0D4E9012118F848
:10084000010B9047206A401C2062381EA7F1010767
:10085000F3DC2046FFF7A6FD032011B041E60000BF
:10086000074B70B50D467B4400F05BF80446284604
:1008700000F0DCF810B14FF0FF3070BD204670BDC5
:1008800097330000004870473800002430B5B0F1BD
:100890000A0271F100034FEA900E4EEA817EB0EB3E
:1008A0000E0061EB91014FEA101E4EEA017E10EB43
:1008B0000E0041EB11114FEA102E4EEA016E10EBC3
:1008C0000E0041EB11214FEA104E4EEA014E10EBA3
:1008D0000E0041EB1141401841F100014FEAD000F8
:1008E00040EA41704FEAD1014FEA810444EA907432
:1008F00010EB800544EB01046D1944EB0404521B1A
:10090000A3414FF0000348BF0A3200D530BD401C60
:1009100041F1000130BD000001694A1C0261087804
:10092000704700B58FB0CDE901310021059105492F
:100930007944CDE9031011466846FFF00CFC0FB076
:1009400000BD0000E5FFFFFF2DE9F0478146164698
:100950008AB0354878440DC88DE80D003248784497
:10096000801C03AC0DC884E80D0041F69B300844A0
:10097000372190FBF1F290FBF1F5A5F1800501FB29
:1009800012041B3C02D56442012000E00020DFF885
:1009900098A080460027FA44AAF1BE0A0EE0E007BC
:1009A0000AD03246684607EB470101230AEB810172
:1009B00003F114F88DE8070064107F1C002CEED1C1
:1009C000194F7F44AE3F19E0E80715D007EB04103C
:1009D0000DF1180A90E80E008AE80E00C068F04297
:1009E00001D1981908903246012306A903A802F103
:1009F000F5FF03AB83E807006D10641C002DE3D105
:100A00004FF0010332466946B8F1000F03A802D047
:100A100003F078F901E002F1E1FFC9E90001C9F84A
:100A200008200AB0BDE8F0876C350000007B00F0BC
:100A30008000704710B50446AFF300802046BDE843
:100A40001040FFF0E8BA0000FEE7000000000000E0
:100A50002DE9F04F82B00F68002F00F0D78000F131
:100A6000264242F2004402F1FF728305C5F60204F9
:100A70000A26A04243EA922208BF0926092A4FF01B
:100A8000010A38BF1646002200250096002609E01C
:100A900001350F6837FA05F306F1020602F1040288
:100AA00000F0B4800AFA05FB17EA0B08F0D0D1F881
:100AB0000490B9F1120F00F2A1800AFA09F717F0B9
:100AC000061F00F09B800323876803FA06FCCC68AE
:100AD00027EA0C0EB44044EA0E04846044684FEAEE
:100AE00019134FEA450A6FEA0C0C24EA0B04AB40D9
:100AF0002343436049F01004C368122C8C6803EA56
:100B00000C0304FA0AF443EA0403C36014D16FF03F
:100B1000030302F01C0703EA55030F24034404FAFD
:100B200007F9D3F820E00C692EEA090EBC4044EA2C
:100B30000E071F62D1F8049009F00303076803FA57
:100B40000AF307EA0C075FEAC9044FF0010A43EA17
:100B5000070303609CD544F2F44740F2084EC5F603
:100B60000207C5F6000E0F244FF0B0493B6843F072
:100B700002033B603B6803F00203019325F003038B
:100B8000019F02F00C0753F80EC0BC402CEA040C85
:100B9000009C04FA07F747EA0C0743F80E7040F28E
:100BA000040EC5F6000EDEF87CC04F684CEA08045F
:100BB000FB0358BF2CEA0804BB03CEF87C40DEF8E8
:100BC00080C04CEA080458BF2CEA0804FB02CEF8A7
:100BD0008040D9F800C04CEA080458BF2CEA080449
:100BE000BF02C9F80040DEF8003043EA080458BFED
:100BF00023EA0804CEF800404AE700BF0323B246C8
:100C000003FA06F76FEA070C74E700BF02B0BDE80D
:100C1000F08F00000000000090F84120202A03D14E
:100C200090F84020012A01D102207047242280F848
:100C300041200268136823F001031360136823F452
:100C4000706343EA01211160116841F001011160F4
:100C5000202180F84110002180F84010084670479C
:100C600081B044F2F441C5F602010A6842F0020282
:100C70000A60096801F00201009140F20441009A03
:100C8000C5F600010A681043086001B07047000013
:100C90002DE9F04F83B0044690F8410020280DD193
:100CA000DDF83080B8F1000F0CD0DDF834A0BAF1D7
:100CB000000F07D094F8400001280BD1022003B0A8
:100CC000BDE8F08F4FF400706064012003B0BDE810
:100CD000F08F00BF1F4615468946012084F840006A
:100CE000FFF022FC21680646896909040AD500BF85
:100CF000FFF01AFC801B192800F2C480206880696C
:100D00000004F5D4212084F84100402084F84200FA
:100D1000204649462A463B464FF0000BC4F844B0F3
:100D2000C4F82480DDF83880A4F82AA0C4F834B0D0
:100D3000CDE9008600F074FF30B184F840B00120A6
:100D400003B0BDE8F08F00BF608D49F6004540F26A
:100D5000000ACFF60045B0F5807FC0F2FF1A0BD332
:100D60006FF39F2920684168294041EA090141EA5F
:100D70000A014160FF200DE06FF39F29608D21681B
:100D8000C3B24A682A4042EA034242EA090242F0F8
:100D900000724A6008F101074FF0FF0B208510E058
:100DA000618D2185C9B250F8042F2A4042EA0141E1
:100DB0004FF0007241EA090111430160608D002883
:100DC00042D020464146324600F0CAFF00287FF458
:100DD0007CAF616A206811F8012B82626162618DCB
:100DE00001396185218D01392185628D002AE5D087
:100DF0000904E3D1816909060DD4BFB1B8F1000F30
:100E00003ED000BFFFF090FB801B40453AD82068E1
:100E100081690906F6D5618DB1F5807FC0D3A4F84C
:100E200028B0524650F8041F2940C3E781690906DB
:100E3000F1D4816909065CBF81695FEA0161EAD486
:100E400081690906F2D5E6E720464146324600F0C0
:100E500053FF00287FF439AF206820214EF60003AD
:100E6000C161CFF6006342681A40426084F84110C5
:100E7000002084F8420084F8400003B0BDE8F08F01
:100E8000FFF052FB606C40F020006064202084F88A
:100E90004100002084F8420084F84000012003B0A3
:100EA000BDE8F08F0000000041F600410068C5F683
:100EB0000001884218BF704710B586B044F2E04484
:100EC000C5F60204206840F008002060206800F0A9
:100ED0000800019001984FF44050019012200290B8
:100EE00001200390032004900420059001F5F830C0
:100EF00001A9FFF7ADFD606940F0800060616069A5
:100F000000F080000090009806B0BDE810407047E7
:100F100070B540F20006C2F200463178E1B10446F5
:100F200040F20800C2F200404FF47A72B2FBF1F1D5
:100F30000068B0FBF1F000F1AFFC0F2C4FF00105A1
:100F400008D838B94FF0FF3000222146002500F0C4
:100F500007F87460284670BD012070BD00000000D5
:100F600070B54EF60C5C4FF0FF36CEF2000C00F17F
:100F7000604505F56445DCF80030C3F3022E8EF0C1
:100F80000703042B28BF0423BEF1030406FA03F36E
:100F900021EA030100F00F0338BF0024043B0028BE
:100FA000634406FA04F048BF03F10C05A14022EAAD
:100FB000000008430001287070BD00000000000020
:100FC0004EF60C514FF6FF03CEF200010A681A40AC
:100FD00060F30A2242F0806040F0FD7008607047C4
:100FE00080B544F2404EC5F6020E5EF8183C5EF83D
:100FF000181C5EF8142CC1F3055CDEF80410BCF17B
:10100000000F15D0C908D20501EAE2716FF35F3114
:1010100000EE101A03F003010229B8EE400A0DD0C9
:1010200081B95EF8401C890610D49FED361A1BE08A
:1010300000218160C0E9001180BD00BF9FED301A22
:1010400012E000BF9FED2D1A0EE000BF5EF8401CBD
:1010500049F20002C0F2D032C1F3C10122FA01F11B
:1010600001EE101AB8EE411ADEF800109FED263A94
:101070006FF35F2102EE101ADEF80010C1F3462173
:10108000B8EE422A00EE032A00EE10CAB7EE003A8C
:10109000B8EE400A81EE000A32EE031A02EE101A90
:1010A000B8EE422A20EE010A32EE031A80EE011A4F
:1010B000BCEEC11A80ED001ADEF80010C1F3064143
:1010C00001EE101AB8EE411A31EE031A80EE011A41
:1010D000BCEEC11A80ED011ADEF80010C1F3066102
:1010E00001EE101AB8EE411A31EE031A80EE010A31
:1010F000BCEEC00A10EE101A816080BD0024744A54
:101100000024F44A0024744C000000390000000060
:101110002DE9F04381B0002800F02A8142F2000856
:101120000446C5F200288946D8F8000000F00F00F8
:1011300088420ED2D8F8000020F00F0040EA0900E3
:10114000C8F80000D8F8000000F00F00484540F053
:101150000F81206844F218474107C5F602070AD5F7
:1011600021693A6802F07002914204D93A6822F08B
:1011700070021143396001070AD561697A6802F08B
:101180007002914204D97A6822F0700211437960AA
:10119000C1060AD5A1697A6802F4E062914204D9D5
:1011A0007A6822F4E0621143796081060AD5E16928
:1011B000BA6802F07002914204D9BA6822F0700253
:1011C0001143B96010F002010AD0E2683B6803F0F5
:1011D0000F039A4204D93B6823F00F031A433A6085
:1011E000C20746D03968D4E9010221F470610128B0
:1011F00041EA0201396009D003280DD0022811D13B
:1012000057F8181C890312D4B2E000BF57F8181C15
:10121000C9050CD4ACE000BF57F8181C890106D4EE
:10122000A6E000BF57F8181C490740F1A18057F805
:10123000081C21F00701084347F8080CFFF074F977
:10124000064641F2883500BF57F8080C616800F087
:101250003800B0EBC10F09D0FFF066F9801BA8423F
:10126000F2D9032001B0BDE8F08300BF206800F090
:10127000020151B1E1683A6802F00F02914204D2D2
:101280003A6822F00F0211433960D8F8001001F0DB
:101290000F0149450DD9D8F8001021F00F0141EA9E
:1012A0000901C8F80010D8F8001001F00F014945F5
:1012B0005ED141070AD521693A6802F07002914275
:1012C00004D23A6822F070021143396001070AD54E
:1012D00061697A6802F07002914204D27A6822F061
:1012E000700211437960C1060AD5A1697A6802F4D7
:1012F000E062914204D27A6822F4E062114379609C
:1013000080060AD5E069B96801F07001884204D20C
:10131000B96821F070010843B86000F131FA39680A
:1013200043F6AA52C0F61002C1F30321515C3B6898
:1013300003F00F0301F01F01D25C20FA01F102F06B
:101340001F0040F20C02C2F2004221FA00F01060CD
:1013500040F2040040F20802C2F20040C2F2004231
:101360000068116001B0BDE8F043FFF7D1BD00BFD8
:10137000012001B0BDE8F08380B500F101FA44F22C
:10138000184143F6AA53C5F60201C0F610030A68D5
:10139000C2F303229A5C096801F00F0102F01F02F8
:1013A000595C20FA02F201F01F0040F20C01C2F277
:1013B000004122FA00F0086040F20801C2F2004148
:1013C0000A6080BD0000000080B500F1D9F944F248
:1013D000184C43F6AA53C5F6020CC0F61003DCF80D
:1013E0000020C2F303229A5CDCF8001001F00F0128
:1013F00002F01F02595CD04040F20C02C2F20042DF
:1014000001F01F0120FA01F1116040F20802C2F25E
:1014100000421060DCF80400C0F30210185C00F019
:101420001F0021FA00F080BD002841D0F0B581B046
:101430000446007844F20046C007C5F6020612D002
:10144000306900F03801B06A102905D0182931D16F
:1014500000F0030002282DD13068800303D56068B6
:10146000002800F05B812078800740F19880306987
:1014700010F03801B06A2FD0182908BF5FEA8070D9
:101480002AD0E0683168002844D021F019010843CF
:101490003060FFF049F805463068400723D4FFF07C
:1014A00043F8401B0228F7D9032001B0F0BD00BF6C
:1014B00001207047606800283ED0B0F5A02F53D0BF
:1014C000B0F5803F54D0306820F480303060306810
:1014D00020F480204FE000BF3068400703D5E0686B
:1014E000002800F01B81FFF017F841F20301884249
:1014F00008D820697168402821F47C314CD141F42E
:1015000000304BE07068216920F0FE4040EA016045
:1015100044E000BF21F001003060FFF005F805460F
:10152000306840073BD5FEF0FFFF401B02284FF01C
:101530000300F5D901B0F0BD306820F48030306090
:10154000306820F480203060FEF0EEFF054600BFDA
:10155000306880037FF587AFFEF0E6FF401B64280C
:101560004FF00300F4D9E5E7306840F480203060A4
:10157000306840F480303060FEF0D6FF054600BF92
:10158000306880033FF56FAFFEF0CEFF401B64284C
:10159000F6D9032001B0F0BD41EA00307060207838
:1015A000C00654D5306900F03801B06A082905D06A
:1015B000182919D100F00300012815D13068C005A1
:1015C00003D5E069802840F0A980FEF0A5FF41F234
:1015D000030188421ED8206A7168202821F0F84152
:1015E00032D141F0804031E0E0690028306819D004
:1015F00040F080003060FEF097FF05463068C0057F
:10160000E3D4FEF091FF401B0228F7D9032001B07C
:10161000F0BD00BFF068216A20F07C5040EA016014
:10162000F06014E020F080003060FEF07DFF0546A1
:101630003068C0050BD5FEF077FF401B02284FF045
:101640000300F5D976E700BF41EA8060706020783A
:10165000000737D4207880064AD42078400761D428
:10166000656A65B3306900F03800182840F0A4803E
:10167000012DB16A306B51D001F00302A36A9A4286
:101680004CD1C1F30511E26A914247D10146226B68
:101690006FF35F21013A914240D1C0F34622616B62
:1016A00001398A423AD1C0F30642A16B01398A421C
:1016B00034D1C0F30660E16B013988422ED100209D
:1016C00001B0F0BD60690028706F41D040F00100AA
:1016D0007067FEF029FF0546706F8007BAD4FEF0F0
:1016E00023FF401B0228F7D9032001B0F0BD00BF43
:1016F000A069002830684DD040F480503060FEF082
:1017000013FF054630688004A7D4FEF00DFF401B90
:101710000228F7D9032001B0F0BD00BF012001B0BD
:10172000F0BD00BFD6F8000440F48070C6F8000495
:10173000FEF0FAFE054600BFD6F80004C00519D435
:10174000FEF0F2FE401B6428F6D9032001B0F0BD84
:1017500020F001007067FEF0E7FE0546706F80071D
:101760007FF578AFFEF0E0FE401B0228F6D903209B
:1017700001B0F0BDA068002840D0052858D001284D
:101780005AD0306F20F001003067306F20F0040035
:1017900055E000BF20F480503060FEF0C5FE0546E5
:1017A000306880047FF559AFFEF0BEFE401B022872
:1017B0004FF00300F4D9BDE6306820F0807030604F
:1017C000FEF0B2FE022D05460CD100BF306880014C
:1017D00048D5FEF0A9FE401B02284FF00300F5D9C2
:1017E000A8E600BF306880017FF569AFFEF09CFE7F
:1017F000401B02284FF00300F4D99BE6306F20F025
:1018000001003067306F20F004003067FEF08CFE7E
:10181000054641F2883700BF306F80077FF520AF63
:10182000FEF082FE401BB8424FF00300F4D981E67F
:10183000306F40F004003067306F40F001003067D7
:10184000FEF072FE054641F2883700BF306F800718
:101850003FF506AFFEF068FE401BB8424FF00300B4
:10186000F4D967E604F12807B06A40F2F3318843FF
:101870008ECF0843591E40EA02104FF47E426FF3A8
:101880005F21B06202EB47204FF4FE0280B2E36BAF
:101890000844A16B02EB01414FF0FE4201F4FE014E
:1018A00002EB0362084402F0FE4108443063F06A30
:1018B0004FF6F87120F00100F062706BA26C884363
:1018C00040EAC2007063F06A216C20F00C0008430B
:1018D000F062F06A616C20F002000843F062F06A86
:1018E00040F48030F062F06A40F40030F062F06A58
:1018F00040F48020F062F06A40F00100F06230684D
:1019000040F080703060FEF00FFE044630688001C9
:101910003FF5D5AEFEF008FE001B02284FF0030095
:10192000F4D907E60000000090F87C20012A01D1DC
:101930000220704770B52422C0F880200268D0F8D9
:1019400064E0BEF1000FD2F800C0136823F0010379
:101950001360936823F0604341EA0301916019D05A
:10196000916843F6E26E9368C0F6000E5B0F43F693
:10197000EA65C1F34266C0F600051EF80340E95C63
:101980002301B3FBF1F11EF80630AE5D1B01B3FB82
:10199000F6F301E001210123A0F86A102021A0F84C
:1019A0006830C2F800C0C0F88010002180F87C10B8
:1019B000BDE87040084670472DE9F04182B004460A
:1019C000D0F8800020280BD10D4600294FF00100EF
:1019D0005CD01746002A59D094F87C00012803D126
:1019E000022002B0BDE8F0819846012084F87C0016
:1019F0000020C4F888002120C4F88000FEF094FD87
:101A0000A4F85470A4F856700746A168B1F5805F39
:101A100001D1206910B12E46002500E000260020EB
:101A200084F87C000CE000BF35F8020B216800262A
:101A30006FF35F208862B4F856000138A4F85600AE
:101A4000B4F8560080B18021002220463B46CDF8F4
:101A5000008001F049F980B9002EE5D0206816F821
:101A6000011B8162E7E700BF4021002220463B4680
:101A7000CDF8008001F038F920B1032002B0BDE8B4
:101A8000F08100BF2020C4F88000002002B0BDE833
:101A9000F081000000000000FEE7000000000000F0
:101AA00070B5044600688369DB0601D4002070BD70
:101AB0000E468169890620D486B1711C12D18169D4
:101AC00089061AD4816989065CBF81695FEA8161F0
:101AD00013D481698906F2D50FE000BFFEF024FD22
:101AE000202022E0154600BFFEF01EFD401BB04244
:101AF00028D8206881698906F6D51021C161202186
:101B0000C1618169890701D5002181628169C907A5
:101B100003D1816941F0010181614EF60002416803
:101B2000CFF60062114041600420616C084360649C
:101B3000202084F84100002084F8420084F840000E
:101B4000012070BD2020F0E72DE9F0410446006837
:101B50001D4649F60003EEB217464268C7F6004339
:101B60006FF39F211A4041EA0641DDF81C801144C1
:101B7000069E41F00041424641F40051416020463A
:101B8000314600F0EDF818B10120BDE8F08100BF4A
:101B9000012D216809D0380A886220463146424624
:101BA00000F0DEF80028EFD12168F8B28862886979
:101BB000400621D426B3701C16D1886940061BD478
:101BC000886940065CBF88695FEA406014D4886910
:101BD00040064FF00000F0D5D7E700BF20688069CD
:101BE00040064FF00000D0D4FEF09EFCA0EB0800B1
:101BF000B042F3D906E000BF0020BDE8F08100BF8D
:101C0000FEF092FC606C40F020006064202084F8BC
:101C10004100002084F8420084F84000B4E700004E
:101C20002DE9F041044600681D4649F60003EEB276
:101C300017464268C7F600436FF39F211A4041EAF6
:101C40000641DDF81C801144069E41F001414246E8
:101C500041F4005141602046314600F081F818B14E
:101C60000120BDE8F08100BF012D216809D0380AAC
:101C7000886220463146424600F072F80028EFD1D3
:101C80002168F8B288628869000621D426B3701CE6
:101C900016D1886900061BD4886900065CBF886974
:101CA0005FEA006014D4886900064FF00000F0D5A8
:101CB000D7E700BF2068806900064FF00000D0D44D
:101CC000FEF032FCA0EB0800B042F3D906E000BF02
:101CD0000020BDE8F08100BFFEF026FC606C40F003
:101CE00020006064202084F84100002084F8420035
:101CF00084F84000B4E7000070B51546044689B189
:101D00000E4600BF20688069800617D42046314601
:101D10002A46FFF7C5FE78B9FEF006FC401BB0422C
:101D2000F0D90FE020688069800607D400212046A2
:101D30002A46FFF7B5FE18B1012070BD002070BD26
:101D4000FEF0F2FB606C40F020006064202084F81C
:101D50004100002084F8420084F84000012070BD5A
:101D600070B5044600688069800710D415460E4699
:101D700011B3701C17D100BF4FF0FF3120462A4627
:101D8000FFF78EFEF0B9206880698007F4D5002047
:101D900070BD00BFFEF0C8FB401BB04216D82068E3
:101DA00080698007F3D4204631462A46FFF778FE43
:101DB0000028EFD006E000BF002120462A46FFF7AA
:101DC0006FFE08B1012070BDFEF0AEFB606C40F00C
:101DD00020006064202084F84100002084F8420044
:101DE00084F84000012070BD2DE9F04F83B0B0F8B9
:101DF00000E04FF6FF7CE64500F01C81B6EE000ADD
:101E0000012A73D101F6043200232CE001EB8E0489
:101E100014ED1F1A14ED212A81FE423A94ED1F4A57
:101E200081FE021A84FE432A84FE033A94ED214A7D
:101E300084FE022A83FE414A83FE011A82FE043A8E
:101E400082FE442A83FE411A31EE021A21EE001A64
:101E5000013301EB8E04DBB284ED001A30F813E09D
:101E6000E64500F0E780CEF347144CB1172C0FD1B4
:101E70001EF01F0416D01F2C18D192ED1D1AE7E793
:101E80001EF01F041CD01F2C1ED191ED3E1ADFE75F
:101E90001EF01F0420D01F2CB8D101EB8E0494ED4E
:101EA0001F1A07E092ED001AD2E700BF01EB8E0483
:101EB00014ED1F1A14ED212A32EE011AC6E700BFF5
:101EC00091ED211AC4E700BF01EB8E0494ED1F1AB7
:101ED00094ED212AB8E700BF01EB8E0494ED211A9E
:101EE00014ED1F2A32EE011AB0E700BF41F268225A
:101EF0001A44002309E000BF41F82E400133DBB251
:101F000030F813E0E64500F095800EF01F041F2C1A
:101F10002AD8DFE804F02517292929292929292980
:101F20002929292929292929292929292929292921
:101F300029292929171100BF01EB8E0454F8044CFC
:101F4000DAE700BF01EB8E0797ED011A17ED012AC2
:101F500032EE011A21EE001A87ED001ACEE700BF1B
:101F600001EB8E046468C7E7AEF102055489AFB295
:101F7000BC42E7D01588BD42E4D09689BE42E1D08C
:101F8000B2F802B0BB45DDD0B2F80E80B845D9D06A
:101F9000B2F80490B945D5D0B2F810A0BA45D1D066
:101FA000CDF808A0B2F806A0CDF804A0BA45C9D073
:101FB000B2F812A0CDF800A0BA45C3D0B2F808A07C
:101FC000BA45BFD00EF10207BFB2BC42BAD0BD4283
:101FD000B8D0BE4218BFBB45B4D0B84518BFB9454C
:101FE000B0D0029CBC421CBF019CBC42AAD0009C49
:101FF000BC4218BFBA45A5D001EB8E0797ED011A78
:1020000097ED023A17ED024A17ED012A31EE433AF5
:1020100032EE444AB0EEC35AB0EEC46AB4EE465A49
:10202000F1EE10FA02DD32EE041A95E731EE031AF2
:1020300092E700BF03B0BDE8F08F00000000000091
:102040002DE9F04F81B02DED108B88B00646B0F928
:1020500054069FEDCECAB0EE408A83B20028B7EE98
:10206000009B8B4601EE103A41F25C21B0EE60AA73
:102070000BEB0104B6F880169BF82400B8EE411A69
:1020800041F25828B6F882969246C1F381270BEBAD
:10209000080531EE0C0A21FE00DAB0EE490B01F121
:1020A000EFFDB0EE40BB3846B0EE490B01F1E8FD64
:1020B0008BEE000BBBF9020001EE100ABBF9000029
:1020C000B7EEC00BB8EEC11A90EE0D1A00EE100A72
:1020D000B6F9540681B2B8EEC00A00289BF8240075
:1020E00081EE00EA00EE101AB6F88016B8EE400A4B
:1020F000C1F3812730EE0C1A20FE01DAB0EE490B55
:1021000001F1BEFDB0EE40BB3846B0EE490B01F127
:10211000B7FD8BEE000BBBF90200B6F90016BBF958
:10212000003001EE100AB6F94006B7EEC00B82B2DD
:1021300003EE103AB8EEC11A0028DFED95DABBF8CD
:102140000C00B8EEC33ADFED93CA90EE0D1A00EE24
:10215000102A8AB2B7EE00DA02EE102AB8EE400A70
:10216000B8EE422A30EE0C4A81EE031A9BED043A97
:1021700032EE0C5A20FE040A002931EE2D1A22FEFE
:10218000052A31EE2C1AA0EE032AB0EE4D3A80EE6D
:10219000020A9BED012AA2EE013A9FEDF81A20EE09
:1021A000010A01EE100A9BF84C0F80EE030AB8EE0C
:1021B000411A30EE410A9BED021A80EE010AB3EE9D
:1021C000091A70EE01EA9FEDF10A3AEE001A3EEEAE
:1021D000800A21EE011A20EE000A21EE01FAB0EE8B
:1021E0004F1A10EE001AB0EE490BC1EE088A01F149
:1021F00047FDB0EE40AB41F24D20B0EE490B1BF86D
:10220000000001F13DFDB0EE40BB9BF84A06B0EE88
:10221000490B01F135FDBBF84600B0EE4D3ABBF974
:102220004410B6F9142607B29BED0B1A9FEDD82A7D
:10223000781AA1EE023A01EE100A90B2B0EE4D7A91
:1022400004EE100A9BED0D5AB8EEC12A01EE101AE9
:10225000F0EE4D1A002AB8EE444AB6F91006B8EE70
:10226000C11ABBF91410A5EE027A9BED0C2A34EECC
:102270000C5AB6F95026E2EE011ADBED075ACDEE04
:10228000033A019424FE052A04EE101A81B20028B4
:1022900005EE101A3BF9080091B2B8EEC44A06EEFA
:1022A000101ACDED023AB8EE455ACDED041A84EE7F
:1022B000022A4FF08001B8EE466A75EE0C2A3EEE17
:1022C0002D4A61EE873A07EE100A65FE224ABBEE00
:1022D000095A76EE0C2A002A34EE2C3AB5F902207F
:1022E0003EEE854AB0EE4D5A66FE226AF0EE4D2A69
:1022F0009BED086AB8EEC77AA5EE835A4FF07E5080
:10230000E6EE042A039062EE244AB6F8800662EEF6
:10231000261A9BF8255001EA501ECDED053AAE4530
:1023200062EEC75AB7EEC07B00EE102AE5EE854A92
:10233000B8EEC00ACDED064A06D1F0EE4D0AD6EE53
:10234000440A20EE806A05E094ED006A36EE000A49
:1023500020EE626ADFED8F0AE6EE051A27EE207A9C
:1023600000EE907AB7EECA0BB6F882863FEE286A86
:1023700006A8B7EECB5B00EB8909F8EEE00ACDEDDD
:10238000071A00244A27DFED841A36E0000080C7D0
:1023900033335340333353C000240BEB4401F0EE8E
:1023A0004D6A02AAB1F9401002EB840205EE901AC0
:1023B0000BEB8401F8EEE55A74EEE54AD1ED0B5AC9
:1023C000E5EEA46AD2ED004A63EEA43A63EEA63AC3
:1023D000C2EEA32A76EE222AF1EEE22AF1EEE22AFA
:1023E00072EEA12ACAED002AB0F5407F0AF1040A74
:1023F00007F10207044600F0C380C4F3401004F064
:10240000010CBEF1000F18BF80EA0C00404504F13A
:102410000100E9D10BEB0403F0EE4D5A93F94C2C7B
:1024200093F94D3F02EE902A36F9142004EE903ACB
:1024300091B2002AF8EEE22A03EE901A0BEB0701A4
:10244000F8EEE44AC2EE802AB1F90216F8EE633AD9
:1024500006EE901AC4EE854AE2EE845A73EE8C2A98
:10246000F8EEE66A63FEA22AF0EE4D3AAE45E4EEDF
:10247000833A65EEE64A62EE222AE4EEA32A27D0EA
:10248000A11C8208AC463546E61C02EB91010222F3
:10249000A30802EA141203EB9603561E03EE906A99
:1024A000C91A4FF080732E46A3EB02626546F8EE20
:1024B000E33A5143019A0916D2ED024AE4EEA32A07
:1024C00003EE901AD2ED014AF8EEE33AE4EEE32A85
:1024D000F0EE4D4A3BF80710DBED0A3AD9ED005A11
:1024E000DBED066AE3EE844A03EE901AE6EEE52A97
:1024F000F0EE4D6ABBF94210F8EE633AC7EE233AAC
:10250000C2EE882A63EEA43AF0EE625A63EEA34A62
:10251000E3EE865A63EEA44A65EEA44ADBED0C5A5C
:10252000E5EEA16AF1EEE44AF1EEE44A65EEA44A72
:1025300005EE901AE3EEA64AF8EEE55AC2EEA44A7A
:1025400076EE244AF1EEE44AF1EEE44A74EEA14A52
:10255000F4EE654AF1EE10FAFFF61EAFF4EE414AD2
:10256000F1EE10FA02DA012417E700BF0324F4EEBB
:10257000604AF1EE10FAB8BF02240EE7000080486E
:1025800008B0BDEC108B01B0BDE8F08F33938843E9
:1025900000002042BD378635339388C30000000019
:1025A00070B52DED048B0446B0F966000D464FF46E
:1025B000FF5101EAD001002848BF01F560414FF406
:1025C00060429FEDA78A42EA40102980A0F50050A2
:1025D0006880B4F96400B4EE009A9FED9F4B81B21D
:1025E00000284FEA91219FEDA05A6FF39F2000EE43
:1025F000101A02EE100A4FF000014FF6D876B8EE2E
:10260000400AB8EE422A30EE081A20FE010AB1EB69
:10261000502F208C9FED931AB4F8621032EE011AFD
:1026200000F47040A98103EE100AB4F8600002FEC5
:10263000011AA882B2EE002BB4F97810B8EE433B31
:10264000B4F870C0C8B2B4F87E302E6420EE050A2B
:1026500003EE042BB4F87E608AB203EE100A21EE7A
:10266000091A85ED010AB7EEC22B120AB8EE433AF9
:102670009FED7E0A85ED021A7F2885ED042A02EE81
:10268000102AC3F3013233EE001AC6F30313A5F880
:10269000443088BFB0EE413A94F87F6042EA82024B
:1026A0005200B8EE422A06F00F0603FB02F0334454
:1026B000A5F8440003FB02F032EE001AA5F846002C
:1026C0004FF4C870A5F848000029B4F97A009FEDCE
:1026D000684A22FE011A9FED675A81B223EE043A3E
:1026E000C2B2090A02EE102A04EE101A7F2AB4F8C8
:1026F0007E2085ED063A4FF00103B8EE422A02F043
:102700000F01B8EE444AB4F97C2021EE051A32EEEE
:10271000003A34EE006A88BFB0EE432A0028D0B2F7
:1027200024FE063A04EE100A7F2801F1080091B257
:1027300003FA00F04FEA1121B8EE444A06EE101AEF
:1027400041F25C2105EB0106294634EE005AB8EE51
:10275000466A88BFB0EE454A05EE100A002A36EEFA
:10276000000A85ED0A1ACCF3013085F82400B8EE92
:10277000C55A4BF2177026FE000ACBF65110E863DB
:10278000204682EE051A85ED0B1A83EE051A85EDBB
:102790000C1A84EE051A80EE050A85ED0D1A85EDFA
:1027A0000E0A00F021FB2046294600F0D5FB20460A
:1027B0002946FFF069FF2046294600F1B9FC204672
:1027C000294600F17DFBB4F96A009FED2B3A83B2F4
:1027D00000F03F01C0F3841200EE101ADB0A01EE94
:1027E000102A04EE103A1F29B8EE400A4FF080017B
:1027F000B8EE411AB8EE444A30EE082A31EE035AD8
:1028000088BFB0EE420A34EE032A0F2A88BFB0EE2A
:10281000451A0028B6EE003AA08A24FE022A9FED4F
:10282000174A20EE040A21EE031A86ED000A22EE72
:10283000090A21EA101085F82500204686ED011AC4
:10284000294686ED020ABDEC048BBDE8704001F01C
:102850008FB800BF00BF00BF000000000000103FA5
:10286000000080C2000080C400008039000080C3E6
:102870000000003D00000039000000C20000803D63
:1028800070B52DED088B0546B0F95406B7EE008BF8
:102890000C4682B29FED39AA00EE102A0028B5F846
:1028A000802691F82400B8EE400AC2F3812630EE6B
:1028B0000A1A20FE01BAB0EE480B01F1E1F9B0EEC0
:1028C000409B3046B0EE480B01F1DAF989EE000B7F
:1028D000B4F90200B5F90016B4F9003001EE100A9F
:1028E000B5F94006B7EEC00B82B203EE103AB8EE6F
:1028F000C11A0028A089B8EEC33A90EE0B1A00EE78
:10290000102A8AB202EE102AB8EE400AB8EE422A25
:1029100030EE0A4A81EE031A9FED193A32EE0A5A56
:1029200020FE040A002931EE031A94ED043A22FE37
:10293000052AA0EE032A9FED143A31EE031AB7EEF2
:10294000003A80EE020A94ED012AA2EE013A9FEDD0
:102950000D1A20EE010A01EE100A80EE030AB8EE0D
:10296000411A30EE410A94ED021A80EE010AB3EEEC
:10297000091A30EE010ABDEC088B70BD000080C75B
:102980003333534000008048333353C0000000000D
:1029900070B584B015461C466E000A46B3B24FF4BB
:1029A000FA71CDE90131410040F6D450C2F2004045
:1029B00002230094FDF03CFE20B14FF0FF3004B044
:1029C00070BD00BFEDB100202118851C235CB5420D
:1029D0004A784B70225414D2051D8A78CB78B542C0
:1029E000CA708B700DD2851D0A794B79B5424A7138
:1029F0000B7106D208308A79CB79B042CA718B71DB
:102A0000E2D3002004B070BDB0B582B00D460DF128
:102A1000060348F20D0101220446FFF7B9FF08B191
:102A200002B0B0BDBDF8060005F0070120F46070EB
:102A300040EAC11248F20D012046FFF02DF902B024
:102A4000B0BD00000000000080B540F6206041F2FB
:102A50000001C2F20040C4F201010C2201604FF4F7
:102A6000E13141600021C0E902110161C0E90521A5
:102A7000C0E90711C0E90911FEF08AFF08B1FDF0B5
:102A800047FD40F620600021C2F20040FEF74CFFF7
:102A900008B1FDF03DFD40F620600021C2F200408B
:102AA000FEF02EFF08B1FDF033FD40F62060C2F2CB
:102AB0000040FEF009FF002808BF80BDBDE880404F
:102AC000FDF026BD0000000070470000000000007F
:102AD000F0B581B044F22C47C5F6020757F8042C34
:102AE00002F00302032A03D1012001B0F0BD00BFB0
:102AF000054657F82C0C0C4620F0805047F82C0C5B
:102B0000FDF012FD064600BF57F82C0C800005D5DD
:102B1000FDF00AFD801B0228F6D964E057F8040C8A
:102B2000EE6895E80E0020F07C70012C40EA015020
:102B3000A2F101016FF35F214FF47E4202EB4322C9
:102B400047F8040C92B24FF0FE4302EB01004FF441
:102B5000FE012A6901EB064101F4FE0103EB02626A
:102B6000084402F0FE41084478613868696920F43D
:102B7000406040EA010038603868A96920F40070BC
:102B800040EA0100386038684FF6F87120F4807030
:102B90003860B869EA6920EA01004FF0807140EAC4
:102BA000C200B861386808BF4FF4000140F480707B
:102BB000002C386008BF4FF4800138680843386043
:102BC00057F82C0C40F0805047F82C0CFDF0ACFC72
:102BD000044600BF57F82C0C800007D4FDF0A4FC7D
:102BE000001B0328F6D3032001B0F0BD002001B084
:102BF000F0BD000000000000704700000000000071
:102C0000FDF046BE00000000816ACA070CD18A07A9
:102C100015D44A071ED40A0727D4CA0630D48A0618
:102C200039D44A0642D454E00268D0F82CC0536824
:102C300023F4003343EA0C0353608A07E9D50268A2
:102C4000D0F830C0536823F4803343EA0C03536058
:102C50004A07E0D50268D0F834C0536823F48023D3
:102C600043EA0C0353600A07D7D50268D0F838C08E
:102C7000536823F4004343EA0C035360CA06CED5DD
:102C80000268D0F83CC0936823F4805343EA0C03F5
:102C900093608A06C5D50268D0F840C0936823F4D3
:102CA000005343EA0C0393604A0612D50268D0F839
:102CB00044C0BCF5801F536823F4801343EA0C031F
:102CC000536006D1536823F4C00C836C43EA0C03B1
:102CD0005360090658BF70470168C06C4A6822F407
:102CE00000221043486070472DE9F0410446006817
:102CF0000D46C7693940491BB1FA81F14909914232
:102D000059D1DDF81880B8F1000F25D0164618F11A
:102D1000010139D1C1692940491BB1FA81F1490941
:102D2000B14248D1C1692940491BB1FA81F1490931
:102D3000B14201BFC1692940491BB1FA81F104BF09
:102D40004909B14237D1C1692940491BB1FA81F122
:102D50004909B142DED02EE0FDF0E6FB20680168B3
:102D600021F4D0710160816821F00101816020208F
:102D7000C4F8800004F1840020210160002084F860
:102D80007C000320BDE8F0811F4600BFFDF0CCFBB6
:102D9000C01B4045E2D820680168490744BFC169AB
:102DA0005FEA01510AD4C0692840401BB0FA80F0A4
:102DB0004009B042EAD00020BDE8F0814FF4006144
:102DC0000162016821F4D0710160816821F0010184
:102DD00081602020C4F88000C4F8840004F18800D9
:102DE000CAE70000000000002DE9F0472DED0C8B34
:102DF0000546B0F874004FF600474FF0000CB5F8E8
:102E0000723000F400720646CFF6FF776FF39F230F
:102E10009FED4C1A6FF39F2600EE103A0C46BCEB68
:102E2000522F01B24FF6C072B8EE400A41F2582854
:102E300018BF3E43B7EE008B870A30EE011A002917
:102E400048BF42EA9027BCEB532FB5F840004FF043
:102E50001B0241F2502100FE01AA04EB0809B0EE6A
:102E6000480B02EB103004EB010A00F109FFB5F941
:102E7000720095F876209FED343A81B202EE102A66
:102E8000890A9FED32BA01EE101A0028B0EE409B7D
:102E90004FF00801B8EE422AB0EE480BB8EE411AE6
:102EA00032EE0B4A31EE033A21FE03CA7F2A88BF75
:102EB000B0EE442A95F87000B7EEC2DA01EB1010BC
:102EC00000F1DEFEB5F97600B7EE001AB7EECA3AA9
:102ED0009FED1F4A81B200288DEE000B4FEA1121B1
:102EE00002EE101A0CEE041A83EE093B95F87100FD
:102EF00006EB0705B8EE422A00F00F00B7EEC00B54
:102F000084ED080A32EE0B4AB7EEC39B22FE042A78
:102F1000B0EE480B21EE09AAB7EEC2BA00F1B0FE3E
:102F20008BEE000B24F808608AED009A8AED01AA66
:102F3000B7EEC00BA9F8025084ED070ABDEC0C8B6C
:102F4000BDE8F087000080C4000080C2000080C39C
:102F50000000003C000000002DE9F04F81B02DED95
:102F60000C8BADF5536DB0F844201291B0F846507B
:102F7000B0F8489002F00F01CDF8D01CC2F3031155
:102F8000B0F84EA0CDF8D41CB0F84A30C2F30321FB
:102F9000CDF8D81C110BB0F84C20DDF8D06CB0F88F
:102FA00042B0C5F3031C09F00F07C5F3032E082E2A
:102FB000C9F30318CDF83CB04FEA12340694CDF8AB
:102FC0001C4D0AF00F040E944FEA1A3BCDF8204D29
:102FD000CAF303141094CDF8244DCAF303241194BA
:102FE000CDF8284DB0F84040CDF8DC1C05F00F01BD
:102FF000CDF8E01C4FEA1531CDF8E4CCCDF8E8EC83
:103000000391CDF8EC1CC9F30321CDF8F07CCDF889
:10301000F48C0791CDF8F81C4FEA19310491CDF8E2
:10302000FC1C03F00F010891CDF8001DC3F3031140
:103030000991CDF8041DC3F303210A91CDF8081DB1
:103040004FEA13310591CDF80C1D02F00F010B91E1
:10305000CDF8101DC2F303110C91CDF8141DC2F36D
:1030600003210D91CDF8181D1394CDF82CBD80F2DD
:103070008B82DDF8D46C082E80F28E82DDF8D86C5D
:10308000082E80F29182DDF8DC6C082E80F29482AA
:10309000DDF8E06C082E80F29782BCF1080F80F01A
:1030A0009A82BEF1080F03D36EF00F06CDF8E86CDC
:1030B0002EB2B6F1FF3FDDE9094CDDE9075140F3DF
:1030C0009183082F80F09683B8F1080F80F09A83DF
:1030D000082D80F09E830FFA89F7B7F1FF3F40F388
:1030E000A283082980F0A783082C80F0AB83BCF171
:1030F000080F80F0AF831BB2B3F1FF3F40F3B383FF
:103100000B9B082B80F0B8830C9B082B80F0BC83B2
:103110000D9B082B80F0C08312B2B2F1FF3F40F349
:10312000C4830E9A082A80F0C983109A082A80F076
:10313000CD83119A082A80F0D1830FFA8AF1B1F178
:10314000FF3F40F3D583B0F85010B0F85630B0F8D8
:1031500058A001F00F02CDF8502CC1F30312CDF8A6
:10316000542CC1F30322CDF8582CB0F85220090B8F
:10317000CDF85C1CB0F85AC002F00F01CDF8601C0D
:10318000C2F30311CDF8641CC2F30321CDF8681C0F
:10319000B0F85410120BCDF86C2C03F00F09C3F3E8
:1031A000031E01F00F02C3F30326CDF8702CC1F308
:1031B0000312CDF8742CC1F30322CDF8782C090B3F
:1031C000CDF87C1C190B0291CDF88C1C4FEA1C32F7
:1031D000CAF303210791CDF8981C4FEA1A310391E5
:1031E0000AF00F07CDF89C1C0CF00F010891CDF8E8
:1031F000A01CCCF303110991CDF8A41CCCF303213E
:103200000A91CDF8A81CB0F85C10CAF30318049218
:10321000CDF8AC2C01F00F020B920C0BCDF8B02CBA
:10322000C1F303120C92CDF8B42CC1F303220D921A
:10323000CDF8B82CB0F85E200594CDF8BC4C02F067
:103240000F040E94150BCDF8C04CC2F30314109468
:10325000CDF8C44CDDF8504C082CCDF8809CCDF84E
:1032600084ECCDF8886CC2F3032BCDF8907CCDF8BC
:10327000948CCDF844B0CDF8C8BC0695CDF8CC5CA4
:1032800080F2B281DDF8544C082C80F2B581DDF873
:10329000584C082C80F2B881DDF85C4C082C80F288
:1032A000BB81DDF8604C082C80F2BE81DDF8644CF7
:1032B000082C80F2C181DDF8684C082C80F2C481B2
:1032C000DDF86C4C082C80F2C781DDF8704C082CBE
:1032D00080F2CA81DDF8744C082C80F2CD81DDF8D3
:1032E000784C082C80F2D081DDF87C4C082C80F2E0
:1032F000D381B9F1080F80F0D681BEF1080F80F0BC
:10330000DA81082E80F0DE811BB2B3F1FF3F40F37B
:10331000E281082F80F0E781B8F1080F80F0EB819F
:10332000079B082B80F0EF810FFA8AF3B3F1FF3F80
:1033300040F3F381089B082B80F0F881099B082B50
:1033400080F0FC810A9B082B80F000820FFA8CF33E
:10335000B3F1FF3F40F304820B9B082B139DDDF874
:1033600044B080F007820C9B082B80F00B820D9BF1
:10337000082B80F00F8209B2B1F1FF3F40F31382B6
:103380000E99082980F018821099082980F01C8273
:10339000BBF1080F41F250234FF01E0103D36BF035
:1033A0000F07CDF8C87C129F07EB030B05F00F0742
:1033B00013B201EB1532B3F1FF3F4FEA151104DCF4
:1033C000069B63F00F03CDF8CC3CB7EE008B0123D6
:1033D000BB40BEEE00AA00EE103A01F00F08C5F3A4
:1033E000032714A9A1F1040900F18005B8EEC09AE1
:1033F00000209FEDDEBA0DF545669FEDDDCA0E9704
:103400000DF54D6110900024CDF8449051F8200046
:103410000E9988400F990844139000BF35F81400A6
:1034200056F8241001FA08F1139F394409F1040AEF
:10343000C0F3051002EE101A00EE100A1F28104605
:103440001746B8EEC22AB8EE400A30EE0B1A88BF13
:10345000B0EE410A00EE092AB0EE480BB7EEC2DA30
:1034600000F10EFC9BED001A9BED012A8DEE000B86
:10347000129831EE021A013490ED062A3A46B7EE60
:10348000C00B202C22EE011A01EE0A0A8CEE000A73
:1034900089ED010AD146C1D11098DDF84490013080
:1034A00009F18009182805F14005A9D100209DEDFA
:1034B000140A40F6FC310DF1500900BF09EB00027F
:1034C0003430884292ED011A81FE000A92ED021A10
:1034D00081FE000A92ED031A81FE000A92ED041AA1
:1034E00081FE000A92ED051A81FE000A92ED061A8D
:1034F00081FE000A92ED071A81FE000A92ED081A79
:1035000081FE000A92ED091A81FE000A92ED0A1A64
:1035100081FE000A92ED0B1A81FE000A92ED0C1A50
:1035200081FE000A92ED0D1A81FE000AC6D19FEDC0
:10353000F71ADDF84880B4EE410A0026F1EE10FAE1
:1035400080F2E88130EE000AB4EE410AF1EE10FAA2
:1035500080F2D48130EE000AB4EE410AF1EE10FAA6
:1035600080F2D08130EE000AB4EE410AF1EE10FA9A
:1035700080F2CE8130EE000A0436B4EE410AF1EE5C
:1035800010FADFDBC6E100BF103ECDF8D06CDDF8ED
:10359000D46C082EFFF672AD103ECDF8D46CDDF879
:1035A000D86C082EFFF66FAD103ECDF8D86CDDF864
:1035B000DC6C082EFFF66CAD103ECDF8DC6CDDF84F
:1035C000E06C082EFFF669AD103ECDF8E06CBCF162
:1035D000080FFFF466AD6CF00F06CDF8E46CBEF199
:1035E000080FBFF461AD63E5103CCDF8504CDDF839
:1035F000544C082CFFF64BAE103CCDF8544CDDF883
:10360000584C082CFFF648AE103CCDF8584CDDF86D
:103610005C4C082CFFF645AE103CCDF85C4CDDF858
:10362000604C082CFFF642AE103CCDF8604CDDF843
:10363000644C082CFFF63FAE103CCDF8644CDDF82E
:10364000684C082CFFF63CAE103CCDF8684CDDF819
:103650006C4C082CFFF639AE103CCDF86C4CDDF804
:10366000704C082CFFF636AE103CCDF8704CDDF8EF
:10367000744C082CFFF633AE103CCDF8744CDDF8DA
:10368000784C082CFFF630AE103CCDF8784CDDF8C5
:103690007C4C082CFFF62DAE103CCDF87C4CB9F1DB
:1036A000080FFFF42AAE69F00F04CDF8804CBEF18C
:1036B000080FFFF426AE6EF00F04CDF8844C082EF0
:1036C000FFF422AE66F00F06CDF8886C1BB2B3F1A2
:1036D000FF3F3FF71EAE029B63F00F03CDF88C3C1B
:1036E000082FFFF419AE67F00F03CDF8903CB8F146
:1036F000080FFFF415AE68F00F03CDF8943C079B5C
:10370000082BFFF411AE63F00F03CDF8983C0FFACD
:103710008AF3B3F1FF3F3FF70DAE039B63F00F0356
:10372000CDF89C3C089B082BFFF408AE63F00F0318
:10373000CDF8A03C099B082BFFF404AE63F00F0307
:10374000CDF8A43C0A9B082BFFF400AE63F00F03F6
:10375000CDF8A83C0FFA8CF3B3F1FF3F3FF7FCAD77
:10376000049B63F00F03CDF8AC3CF5E5000080C28C
:10377000BD37863563F00F03CDF8B03C0C9B082BAA
:10378000FFF4F5AD63F00F03CDF8B43C0D9B082BAF
:10379000FFF4F1AD63F00F03CDF8B83C09B2B1F11D
:1037A000FF3F3FF7EDAD059961F00F01CDF8BC1C6F
:1037B0000E990829FFF4E8AD61F00F01CDF8C01CA7
:1037C00010990829FFF4E4AD61F00F01CDF8C41C95
:1037D000BBF1080F41F250234FF01E01BFF4DFADE3
:1037E000E1E500BF039E66F00F06CDF8EC6C082FF4
:1037F000FFF46AAC67F00F07CDF8F07CB8F1080F62
:10380000FFF466AC68F00F07CDF8F47C082DFFF4E8
:1038100062AC65F00F07CDF8F87C0FFA89F7B7F1C5
:10382000FF3F3FF75EAC049F67F00F07CDF8FC7CCD
:103830000829FFF459AC61F00F07CDF8007D082C82
:10384000FFF455AC64F00F07CDF8047DBCF1080F10
:10385000FFF451AC6CF00F07CDF8087D1BB2B3F14B
:10386000FF3F3FF74DAC059B63F00F03CDF80C3DD8
:103870000B9B082BFFF448AC63F00F03CDF8103D11
:103880000C9B082BFFF444AC63F00F03CDF8143D00
:103890000D9B082BFFF440AC63F00F03CDF8183DEF
:1038A00012B2B2F1FF3F3FF73CAC069A62F00F0252
:1038B000CDF81C2D0E9A082AFFF437AC62F00F02E7
:1038C000CDF8202D109A082AFFF433AC62F00F02D5
:1038D000CDF8242D119A082AFFF42FAC62F00F02C4
:1038E000CDF8282D0FFA8AF1B1F1FF3F3FF72BAC4D
:1038F0006BF00F01CDF82C1D25E400BF46F001064A
:1039000008E000BF46F0020604E000BF00000047E8
:1039100046F00306B7EE008B08F14804F5B2B6EEA8
:10392000009A002709EB070090ED000A2846B7EE41
:10393000C0AAB0EE480B00F1A3F920EE0A0B043741
:10394000B7F5406FB7EEC00B30EE090ABCEEC00A07
:1039500010EE100A24F8020FE4D188F84A660DF53B
:10396000536DBDEC0C8B01B0BDE8F08F0000000082
:103970002DE9F04341F268274FF0FF3201EB070ECB
:1039800000F18006CA510025CEF8102040F2FE2436
:10399000CEF80C2041F2722CCEF808200020CEF890
:1039A0000420002236F8153043B1DB070AD001EBC2
:1039B0004003013023F80C5004E000BF01EB420348
:1039C0000132DD53A54298BF042A03D8052805F12A
:1039D0000105E7D3042A03D96FF00200BDE8F083A4
:1039E000042803D96FF00300BDE8F0838318042B8B
:1039F00004D96FF00400BDE8F08300BFEAB141F2E2
:103A00006A2300270B447E1C964213D2BEF8005056
:103A100033F81770EF1B07F12105032D24BF7D1C20
:103A2000032D03D31F3F032F3746ECD26FF0050061
:103A3000BDE8F083012A40F08B80002800F08480EC
:103A400041F274234FF000080B4441F2722C01EB59
:103A5000480404EB0C054446661C864210D22F88AD
:103A600033F814403C1B04F12107032F24BF671CCB
:103A7000032FDBD31F3C032C3446EDD2D6E700BF27
:103A800008F101088045E2D1002A5DD0A0F1010CC7
:103A90000EF1100E4FF0000941F2682801EB4900C9
:103AA0007646674630F8085036F8060C2C1A04F1B2
:103AB000210003286FF00500BAD3631C032B24BF39
:103AC000A4F11F03032BB3D3C7B336F8040C2C1A8D
:103AD00004F1210003286FF00500A9D3631C032B18
:103AE00024BFA4F11F03032BA2D3012F26D036F845
:103AF000020C2C1A04F1210003286FF0050097D363
:103B0000631C032B24BFA4F11F03032B90D3022FAC
:103B100014D030882C1A04F1210003286FF005001E
:103B2000FFF486AF631C032B24BFA4F11F03032BF8
:103B3000FFF47EAF043F0836781CB5D109F10109C6
:103B400000209145AAD173E70020BDE8F08300BFB3
:103B500041F26C2300270B44BE1C964212D2BEF8E1
:103B6000026033F81750761B06F12105032D24BFA0
:103B7000751C032DFFF45AAF1F3E0137032EEBD205
:103B800054E700BF022A3FF458AF41F26E230027EA
:103B90000B44FE1C964211D2BEF8046033F8175055
:103BA000761B06F12105032D24BF751C032DFFF4A0
:103BB0003DAF1F3E0137032EEBD237E7032A3FF418
:103BC0003CAF41F2702300270B443E1D9642BFF4E8
:103BD00034AFBEF8066033F81750761B06F12105A6
:103BE000032D24BF751C032DFFF420AF1F3E0137AA
:103BF000032EEAD21AE70000704700000000000020
:103C000080B582B0019040F62060C2F2004001A968
:103C100001224FF6FF73FDF7CFFE019802B080BD81
:103C20005FEA400C08BF91F0000F4FEA8C234FEA87
:103C3000C12243EA51514FEA1C5018BF00F5F04031
:103C40004FEA300018BF41F000415FEA6C5C00F0C1
:103C50002980BCF1FF3F08BF40F080407047130C43
:103C600006BF12044FF0100C4FF0000C130E04BFEF
:103C700012020CF1080C130F04BF12010CF1040C1A
:103C8000930F04BF92000CF1020CD30F04BF52003B
:103C90000CF1010C11464FF00002A0F11F00A0EB47
:103CA0000C00704711F0004F08BF704731F0004121
:103CB0003FF4D5AF0B0C06BF09044FF0100C4FF0CA
:103CC000000C0B0E04BF09020CF1080C0B0F04BF13
:103CD00009010CF1040C8B0F04BF89000CF1020CDC
:103CE000CB0F04BF49000CF1010CCCF1200322FAE8
:103CF00003F341EA030102FA0CF2A0EB0C0000F11D
:103D0000010070472DE9804C70B49A46934691E8C3
:103D1000380007C831EA400C48BF34EA430C03D5E9
:103D2000FFF052FCFFF0ECFDF0BCBDE8008C0000A1
:103D30009FED030B20EE000B704700000000000019
:103D4000000000000000001030380A2801D20120D5
:103D5000704700207047000010B500290AD008788D
:103D6000002807D005487844FCF08EFB002801D0DD
:103D7000002010BD0248784410BD0000DE00100095
:103D8000D600100002494FF0000000F012B800BF4A
:103D90000000F87FF1EE100A4FF6FF71C0F2C0315B
:103DA00020EA010040F04070E1EE100A7047FCF795
:103DB00020BC0CF00F03092B08BF082000F02B805B
:103DC0000A2B0BD0082B18BF704708BF1CF0400F00
:103DD0000AD04FF000004FF0000170471CF0400F78
:103DE00018BF4FF0004070471CF0100F08D000F0D3
:103DF0007F4220F0704342EAD3014FEA437070479C
:103E000000F0604021F07F4242EA000201F07F4072
:103E100040EA727070471CF4801F11D01CF4E02F30
:103E200003D06FEACC31490070474FF04050EFF3B8
:103E3000008222F0704242EA000282F3008870475A
:103E40004FF000007047000002400000000000A09A
:103E50000000000005400000000000C80000000055
:103E60000C4000000000409C0000000019400000D1
:103E70000020BCBE0000000034400000BFC91B8E03
:103E800000000004B5400000504BCFD06607E2CFE1
:103E9000010000006C4100003E8251AADFEEA73411
:103EA00001000000D9420000DCB5A0E23A301F97C3
:103EB000FFFFFFFFB4450000FD25A0C8E9A3C14FE7
:103EC000FFFFFFFFFF3F0000000000800000000038
:103ED000FF3F000000000080000000000104081007
:103EE0002040010101030701000008040204080149
:103EF00001010000183F0008000000241800000025
:103F0000FC020008303F000818000024A020000038
:103F10001C03000800000000010000001000000069
:103F20000090D0030090D0033333733F00000000B3
:020000040810E2
:1000000010B510BD00F01AFA114600F79DF903F083
:10001000D3F900F70FFD03B4FFF7F2FF03BC03F7BA
:10002000EBFD00000948804709480047FEE7FEE76E
:10003000FEE7FEE7FEE7FEE7FEE7FEE7FEE7FEE798
:1000400004480549054A064B704700003120100856
:1000500099020008B81A0024B8200024B81C002413
:10006000B81C0024704753EA020C00F069802DE9A7
:10007000F04B4FF00006002B1FBFB3FA83F503FAD5
:1000800005F424FA05F65E4012BF1643B2FA82F573
:1000900002FA05F4C5F120051EBF22FA05FC44EA68
:1000A0000C04203556EA044C4FEA144418BF641C73
:1000B0004FF000084FF00009904271EB030C39D368
:1000C000002919BFB1FA81F701FA07F6B0FA80F7F3
:1000D00000FA07F6C7F120071EBF20FA07FC46EA20
:1000E0000C062037B6FBF4FCA7EB0507103F07F022
:1000F0001F0BCBF120062CFA06F60CFA0BFB44BFC3
:10010000B3460026202FA4BF5E464FF0000B5BEAEB
:10011000060C08BF4FF0010B19EB0B0948EB060862
:10012000ABFB027C06FB02CC0BFB03CCC01B71EBD0
:100130000C01C1E70B46024641464846BDE8F08B3C
:1001400013B5084318BF4FF0FF300146AFF30080EE
:10015000BDE81C4070472DE9F0474FF0000A894682
:100160000446C0F820A02046E1688847002876D0E1
:10017000252806D0D4E901219047206A401C20623E
:10018000F1E7E168204600258847C4F81CA0064630
:100190000027C4F818A02A2E09D0304603F7D4FD52
:1001A00038B304EB8708303EC8F8186019E059F8F6
:1001B000041B204604EB87029161E1688847012F08
:1001C000064618D1E069002820DA25F020051DE058
:1001D000D8F8180000EB800006EB40003038C8F873
:1001E00018002046E1688847064603F7ADFD002861
:1001F000EED1012F0AD02E2E08D12046E168884783
:100200007F1C0646022F45F02005C4DBA0690028AC
:1002100003DA404245F00105A061E80701D025F06E
:100220001005B6B1A6F14100192802D8203645F4D0
:1002300000654A463146204625604D4600F77CF869
:1002400058B1012806D0ED1D25F0070000F108097E
:1002500089E704E005F1040985E730468AE7206A6A
:10026000BDE8F08710B5044603E003F7C9FC401C65
:1002700009D014F8010B05490028F6D1BDE810405B
:100280000A2003F7BDBC4FF0FF3010BD7C000024F6
:100290004FF0000200B5134694469646203922BF1F
:1002A000A0E80C50A0E80C50B1F12001BFF4F7AF6A
:1002B000090728BFA0E80C5048BF0CC05DF804EB4C
:1002C000890028BF40F8042B08BF704748BF20F8BA
:1002D000022B11F0804F18BF00F8012B70477047B8
:1002E0007047704710B500F061F8006810BD10B598
:1002F000044600F05BF8046010BD2DE9F0470D46A0
:1003000099469246044600F124080168880604D5FF
:10031000E06921F01001216000E00120A84201DD28
:10032000471B00E00027A1697A1902EB0900081AAF
:10033000A0612078C00602D4204600F71DF80026F0
:1003400008E0D4E901211AF806009047206A401C11
:10035000761C20624E45F4DB2078C0060AD5204684
:1003600000F70AF806E0D4E9012130209047206A1E
:10037000401C2062381EA7F10107F4DC07E0D4E935
:10038000012118F805009047206A401C2062281EB1
:10039000A5F10105F3DC204600F704F820780006FB
:1003A00002D50220BDE8F0870120FBE70048704736
:1003B000180000242DE9F0411F4604460326016879
:1003C000072A01F4006004DB08B116A505E016A5B4
:1003D00003E008B115A500E015A521F0100020608C
:1003E000A069C01EA0610FB1401EA0612046FFF6AB
:1003F000C3FF4FB1D4E9012138469047206A401C21
:100400002062C01C206206E0206AFAE7D4E90121DC
:1004100015F8010B9047761EF8D22046FFF6C2FF72
:10042000BDE8F0814E414E006E616E00494E4600BF
:10043000696E660000487047180000247546FFF793
:10044000F9FFAE4605006946534620F00700854691
:1004500018B020B5FFF7F4FDBDE820404FF00006CE
:100460004FF000074FF000084FF0000BAC46ACE82F
:10047000C009ACE8C009ACE8C009ACE8C00921F08B
:1004800007018D467047000030B44FF0013C50F832
:10049000042BCCFA52F451F8043BD51A20D1FCB904
:1004A00050F8042BCCFA52F451F8043BD51A17D16A
:1004B000B4B950F8042BCCFA52F451F8043BD51AD5
:1004C0000ED16CB950F8042BCCFA52F451F8043B1D
:1004D000D51A05D1002CDAD030BC4FF0000070479F
:1004E00029BAB1FA81F111F01801D1F1200084404C
:1004F000F2D1CA40CB4012F0FF0213F0FF0330BC30
:10050000D01A704700000000704700000000000093
:10051000704700000000000041F20000C5F60040F6
:100520000068000C7047000041F6B020C2F20040A5
:10053000006870470000000090F84120202A03D195
:1005400090F84020012A01D102207047242280F82F
:1005500041200268136823F001031360136823F439
:1005600080531360136819431160116841F0010151
:100570001160202180F84110002180F840100846C9
:10058000704700000000000010B310B5044690F85A
:10059000410028B9002084F84000204600F784FC80
:1005A000242084F8410094E80910E2680168012AD7
:1005B00021F00101016023F070610161816821F483
:1005C0000041816006D14CF4004181600AE000BF27
:1005D00001207047022A4CF40441816002D14FF49B
:1005E00000614160416804F1100C41F0007141F478
:1005F00000414160C16821F40041C1609CE80E10D7
:10060000114341EA0321C160216A41EA0C01016002
:10061000016841F00101016000206064202184F83C
:100620004110206384F8420010BD0000000000006B
:100630002DE9F04F83B0044690F8410020280DD1F9
:10064000DDF83080B8F1000F0CD0DDF834A0BAF13D
:10065000000F07D094F8400001280BD1022003B00E
:10066000BDE8F08F4FF400706064012003B0BDE876
:10067000F08F00BF1F4615468946012084F84000D0
:10068000FFF752FF21680646896909040AD500BFB1
:10069000FFF74AFF801B192800F2EA802068806972
:1006A0000004F5D4222084F84100402084F8420060
:1006B000204649462A463B464FF0000BC4F844B05A
:1006C000C4F82480DDF83880A4F82AA0C4F834B037
:1006D000CDE9008601F738FA30B184F840B0012046
:1006E00003B0BDE8F08F00BF608DB0F5807F11D3FF
:1006F000206849F600026FF39F29C7F6004241685F
:10070000114042F200424944C8F2FF1211434160D5
:10071000FF2014E0608D49F600032168C7F600430E
:100720006FF39F294A681A40C3B242EA03424A441F
:10073000A2F1FC42A2F55C4202F580324A6049F621
:10074000004540F2000BCFF6004508F101074FF0DD
:10075000FF0AC0F2FF1B208511E000BF618D2185DB
:10076000C9B250F8042F2A4042EA01414FF000720A
:1007700041EA090111430160608D00285AD02068C8
:10078000816949070DD4CFB3B8F1000F6ED000BF17
:10079000FFF7CAFE801B40456AD820688169490777
:1007A000F6D5406A616A0870218D606A0130606226
:1007B000481E2085618D01396185618D0029DBD05E
:1007C0000004D9D12068816909060CD427B3B8F197
:1007D000000F4BD0FFF7A8FE801B404548D820688B
:1007E00081690906F6D5618DB1F5807FB6D3A4F88D
:1007F00028A05A4650F8041F2940B9E781694907E3
:10080000CFD4816949075CBF81695FEA4171C8D46F
:1008100081694907F2D5C4E781690906E3D4816992
:1008200009065CBF81695FEA0161DCD48169090660
:10083000F2D5D8E720464146324601F75DFA002856
:100840007FF413AF206820214EF60003C161CFF67C
:10085000006342681A40426084F84110002084F826
:10086000420084F8400003B0BDE8F08FFFF75CFE63
:10087000606C40F020006064202084F8410000207B
:1008800084F8420084F84000012003B0BDE8F08FF6
:1008900040F2000041F6B021C2F20040C2F2004135
:1008A00000780A68104408607047000000000000EB
:1008B00080B5032000F784FB00F062FF44F218418A
:1008C00043F6AA53C5F60201C0F610030A68C2F344
:1008D00003229A5C096801F00F0102F01F02595CC3
:1008E000D04040F20C02C2F2004201F01F0120FA97
:1008F00001F1116040F20801C2F2004108600020DD
:1009000000F706FB00281CBF012080BD00F004F8A2
:10091000002080BD0000000081B044F2F440C5F624
:100920000200016841F002010160006800F002006D
:100930000090009801B07047B0B544F60C05C5F6BC
:10094000020529684907296806D401F00701081A39
:1009500018BF0120B0BD00BF21F007010843286087
:10096000FFF7E2FD044600BF55F8080C800407D4E9
:10097000FFF7DAFD001BB0F57A7FF5D90120B0BD95
:100980000020B0BD0000000080B500F7F5FC44F287
:10099000204143F6AA52C5F60201C0F610020968CA
:1009A000C1F30211515C01F01F01C84080BD00007D
:1009B00080B544F2384EC5F6020E5EF8103C5EF883
:1009C000101C5EF80C2CC1F3053CDEF80410BCF1E1
:1009D000000F15D0C908D20601EAE2716FF35F314A
:1009E00000EE101A03F003010229B8EE400A0DD000
:1009F00081B95EF8381C890610D49FED361A1BE0C9
:100A000000218160C0E9001180BD00BF9FED301A58
:100A100012E000BF9FED2D1A0EE000BF5EF8381CFB
:100A200049F20002C0F2D032C1F3C10122FA01F151
:100A300001EE101AB8EE411ADEF800109FED263ACA
:100A40006FF35F2102EE101ADEF80010C1F34621A9
:100A5000B8EE422A00EE032A00EE10CAB7EE003AC2
:100A6000B8EE400A81EE000A32EE031A02EE101AC6
:100A7000B8EE422A20EE010A32EE031A80EE011A85
:100A8000BCEEC11A80ED001ADEF80010C1F3064179
:100A900001EE101AB8EE411A31EE031A80EE011A77
:100AA000BCEEC11A80ED011ADEF80010C1F3066138
:100AB00001EE101AB8EE411A31EE031A80EE010A67
:100AC000BCEEC00A10EE101A816080BD0024744A8A
:100AD0000024F44A0024744C000000390000000097
:100AE0002DE9F0470446C07844F22C480007C5F6CB
:100AF000020845D5606E4FEA305103290CD8DFE873
:100B000001F003112F3800BFD8F8001041F4003174
:100B1000C8F800102DE000BF01266078C0070AD099
:100B200032E000BF201D022101F07EF90646F8B137
:100B30006078C00728D135463746607880073BD4B7
:100B40003E466078400750D4B1466078000700F117
:100B500067804F46E078800740F15F817AE000BF10
:100B600004F12400022101F7B3FF06460028DFD17B
:100B7000606ED8F8241021F440110843C8F824000E
:100B800000266078C007D6D0606D042800F2A680E9
:100B90003546DFE800F003ABB10A0A00D8F80000E0
:100BA000354640F40030C8F80000002D2F4600F014
:100BB000AD8060788007C3D5A06D4FEAB0100428DF
:100BC00000F2B480DFE800F004BAC00A0A0000BFF7
:100BD000D8F8000040F40030C8F80000002D2E4680
:100BE00000F0BC8060784007AED5D4F8A4004FEA8E
:100BF0007050042800F2C280DFE800F004C8CE0A7A
:100C00000A0000BFD8F8000040F40030C8F8000027
:100C1000002DA94600F0CA80607800077FF599AFE3
:100C2000D4F8A8004FEA3060042800F2CF80DFE853
:100C300000F003D5DB090900D8F8000040F40030CB
:100C4000C8F80000002D2F4600F0D880E07880071B
:100C500040F1E380A06C4FEA301003281AD8DFE897
:100C600000F003212B0300BF2E466DB36078C00651
:100C700000F1D88037466078800600F1ED803E466E
:100C80006078400600F1FC8037466078000640F14D
:100C9000BA8109E1012501266078C00600F1C28011
:100CA000E8E700BFD8F8000040F40030C8F80000C2
:100CB000002D2E46DAD107E0201D022101F0B4F804
:100CC0000546002D2E46D1D1D8F82000A16C20F089
:100CD000300000250843C8F820009EE001250127C8
:100CE000607880073FF568AF2AE700BF201D00212C
:100CF00001F09AF805E000BF04F12400002101F79B
:100D0000E7FE0546002D2F467FF453AFD8F82400A8
:100D1000616D20F0070000250843C8F8240037461D
:100D2000607880077FF50CAF46E700BF01250126FC
:100D3000607840073FF559AF06E700BF201D00214E
:100D400001F072F805E000BF04F12400002101F772
:100D5000BFFE0546002D2E467FF444AFD8F8240090
:100D6000A16D20F4E07000250843C8F824003E4639
:100D7000607840077FF5E8AE37E700BF01254FF008
:100D80000109607800073FF54BAFE2E6201D002126
:100D900001F04AF805E000BF04F12400002101F74A
:100DA00097FE0546002DA9467FF436AFD8F82C00F3
:100DB000D4F8A41020F4600000250843C8F82C00E3
:100DC000B146607800077FF5C4AE29E70125012709
:100DD000E07880073FF53EAF1FE000BF201D0021F7
:100DE00001F022F805E000BF04F12400002101F722
:100DF0006FFE0546002D2F467FF428AFD8F82C0053
:100E0000D4F8A81020F0E06000250843C8F82C00B2
:100E10004F46E07880073FF51DAF3E466078C0063C
:100E20007FF528AFE06D4FEA3030042800F26C8087
:100E3000DFE800F00472780A0A0000BFD8F800006A
:100E400040F40030C8F80000002D2F4600F07480F8
:100E5000607880067FF513AF206E4FEA304005289A
:100E600000F27A80DFE800F004808A04040400BF06
:100E7000002D2E4600F08C80607840067FF504AF90
:100E8000D4F8AC004FEA3070052800F29180DFE81A
:100E900000F00397A1030303002D2F4600F0A48068
:100EA0006078000640F1AF80E06E58B1B0F1005FAD
:100EB00010D0B0F1805F1FD1D8F8000040F40030AE
:100EC000C8F800002E466DB1E078C00700F0CF8072
:100ED0009DE000BF201D012100F0A6FF0546002D6A
:100EE0002E46F1D1D8F82400E16E20F040500025C4
:100EF0000843C8F8240086E001250126E078C007F1
:100F000040F08580B3E000BF0125012760788006AE
:100F10003FF5A2AFB3E600BF201D002100F084FF23
:100F200005E000BF04F12400002101F7D1FD0546D2
:100F3000002D2F467FF48CAFD8F82400E16D20F40B
:100F4000E04000250843C8F8240037466078800652
:100F50007FF595AE80E700BF012501266078400649
:100F60003FF58EAF90E600BF201D012100F05CFF31
:100F70000546002D2E467FF47FAF09E004F12400E2
:100F8000012101F7A5FD0546002D2E467FF474AF23
:100F9000D8F82400216E20F4E02000250843C8F88A
:100FA00024003E46607840067FF56EAE68E700BFDD
:100FB00001250127607800063FF576AF23E000BFEA
:100FC000201D012100F030FF0546002D2F467FF443
:100FD00067AF09E004F12400012101F779FD05461E
:100FE000002D2F467FF45CAFD8F82C00D4F8AC105D
:100FF00020F0E04000250843C8F82C003746607810
:1010000000063FF551AF3E46E078C0072FD0606C38
:10101000032809D8DFE800F002101A02A946EDB152
:10102000A07840062AD426E001254FF00109A078D7
:10103000400620D522E000BFD8F8000040F4003080
:10104000C8F80000002DA946EAD107E0201D0221C2
:1010500000F0EAFE0546002DA946E1D1D8F82000AF
:10106000616C20F0030000250843C8F82000B14659
:10107000A078400602D44F4619E000BFD8F8D40348
:1010800040F48070C8F8D403FFF74EFA064600BF5C
:10109000D8F8D403C00507D4FFF746FA801B6428AC
:1010A000F6D90325032702E0002D2F4664D02078CF
:1010B000C00700F0B680A06F4FEAF000052800F2EC
:1010C0008D80DFE800F003919B030303002D2E4683
:1010D00000F09E802078800700F1A88037462078B5
:1010E000400700F1B7803E462078800600F1C880B6
:1010F00037462078400600F1DB803E462078000627
:1011000000F1EE8037462068010740F10181D4F8F4
:101110008000B0F5805F09D104F12400022101F7BD
:10112000D7FC002818BF0127D4F88000D8F8281071
:1011300021F440510843C8F828002068C10640F156
:10114000EA80D4F89400B0F5807F09D104F124003E
:10115000022101F7BDFC002818BF0127D4F8940034
:10116000D8F82C1021F440710843C8F82C002068EE
:10117000000340F1F780D0E0D8F84410D4F8B00074
:10118000414011F4407F11D0D8F84410D8F84420E1
:1011900042F48032C8F84420D8F8442021F4407149
:1011A00022F48032C8F84420C8F84410B0F5807F9B
:1011B00040F09A82FFF7B8F9064641F2883A0325D3
:1011C000032700BFD8F84400800700F18B82FFF7A7
:1011D000ABF9801B5045F5D969E700BF0125012611
:1011E0002078800722D479E7201D012100F01CFE21
:1011F0000546002D2E467FF46DAF09E004F1240072
:10120000012101F765FC0546002D2E467FF462AFF3
:10121000D8F82800A16F20F0380000250843C8F84E
:1012200028003E46207880077FF558AF606F05287C
:1012300000F27C81DFE810F0060082018C010600DC
:1012400006000600002D2F4600F08C812078400714
:101250007FF549AFD4F89000052800F29381DFE8CC
:1012600010F007009901A30107000700070000BF65
:10127000002D2E4600F0A281207880067FF538AF41
:10128000D4F88C004FEA3070052800F2A781DFE81F
:1012900010F00700AD01B70107000700070000BF0D
:1012A000002D2F4600F0B681207840067FF525AF4F
:1012B000D4F898004FEAB020052800F2BB81DFE89F
:1012C00010F00700C101CB0107000700070000BFB5
:1012D000002D2E4600F0CA81207800067FF512AF5F
:1012E000D4F89C004FEA7030052800F2CF81DFE887
:1012F00010F00700D501DF0107000700070000BF5D
:10130000002D2F4600F0DE81206801073FF5FFAE7B
:10131000C1063FF516AF000324D5D4F8A000B0F500
:10132000003F0FD0B0F5803F06D0B8BB201D002194
:1013300000F07AFD05E000BF04F12400022101F76E
:10134000C7FB05462E461DB1A07840073FD50DE0EE
:10135000D8F82C00D4F8A01020F440300025084321
:10136000C8F82C003E46A078400730D5D4F8840059
:10137000B0F5401F0BD0B0F5001F15D0B0F5801FA1
:1013800064D1D8F8000040F40030C8F800002F46BF
:101390009DB1A078C0071ED15DE000BF01250126E8
:1013A000A0784007E2D412E004F12400012101F703
:1013B0008FFB0546002D2F46EBD1D8F82800D4F836
:1013C000841020F4401000250843C8F82800374650
:1013D000A078C0073FD0E06CB0F5803F1ED078BB4E
:1013E000D8F8000040F40030C8F800002E46EDB1F7
:1013F0002068810033D481033CD4C10250D4C100A1
:1014000058D4810261D4410069D4B0F1FF3F77DD47
:10141000002E18BF01263046BDE8F087201D0221AE
:1014200000F002FD0546002D2E46E1D1D8F820003F
:10143000E16C20F4803000250843C8F820000AE061
:101440000125012620688100D5D508E00125012766
:10145000A078C007BFD13E4620688100CBD504F1FB
:101460002400022101F734FB002818BF0126206860
:101470008103C2D5E16F6FF0010202EB3122022A33
:101480000AD34FEA31223AB1012A06D1D8F8002016
:1014900042F40032C8F80020E5B30126C102AED5FF
:1014A000D8F82410226F21F000411143C8F824100D
:1014B000C100A6D558F81C1CD4F8B42021F48041F2
:1014C000114348F81C1C81029DD5D8F82410A26E47
:1014D00021F080711143C8F82410410095D558F8C7
:1014E0001C1C21F4004148F81C1CD4F8B81058F812
:1014F0001C2C114348F81C1CB0F1FF3F3FF788AF8C
:10150000D8F82000216D20F040500843C8F8200092
:101510007EE700BFD8F8282022F440721143C8F8B3
:101520002810C1027FF56BAFBAE700BF0125012784
:10153000207840073FF58EAED5E500BF201D012184
:1015400000F072FC0546002D2F467FF47FAE09E0C7
:1015500004F12400012101F7BBFA0546002D2F46B6
:101560007FF474AED8F82800616F20F007000025E2
:101570000843C8F828003746207840077FF5B3AD08
:1015800068E600BF01250126207880063FF578AE89
:10159000AEE500BF201D012100F046FC0546002DF0
:1015A0002E467FF469AE09E004F12400012101F721
:1015B0008FFA0546002D2E467FF45EAED8F82C003B
:1015C000D4F8901020F0070000250843C8F82C003C
:1015D0003E46207880067FF58BAD51E60125012738
:1015E000207840063FF564AE87E500BF201D00214E
:1015F00000F01AFC0546002D2F467FF455AE09E099
:1016000004F12400022101F763FA0546002D2F465C
:101610007FF44AAED8F82800D4F88C1020F0E040CF
:1016200000250843C8F828003746207840067FF593
:1016300064AD3DE601250126207800063FF550AE59
:1016400060E500BF201D002100F0EEFB0546002DE7
:101650002E467FF441AE09E004F12400022101F797
:1016600037FA0546002D2E467FF436AED8F82C000A
:10167000D4F8981020F4E05000250843C8F82C0056
:101680003E46207800067FF53DAD29E6012501277D
:10169000206801077FF53CAE39E500BF201D002121
:1016A00000F0C2FB0546002D2F467FF42DAE09E069
:1016B00004F12400022101F70BFA0546002D2F4604
:1016C0007FF422AED8F82C00D4F89C1020F46040AF
:1016D00000250843C8F82C003746206801077FF52D
:1016E00017AE14E5D4F8B0004FF6CF7358F81C2CA1
:1016F000C0F2FF0300F4407122F47C5203EA10139D
:101700006FF31F30B1F5407F08BF1A43002548F83A
:101710001C2CD8F844100843C8F84400ABE400007F
:1017200080B500F02DF844F2184C43F6AA53C5F6E4
:10173000020CC0F61003DCF80020C2F303229A5C0E
:10174000DCF8001001F00F0102F01F02595CD040DC
:1017500040F20C02C2F2004201F01F0120FA01F136
:10176000116040F20802C2F200421060DCF804008E
:10177000C0F30220185C00F01F0021FA00F080BDC9
:1017800044F20041C5F602010869C0F3C200032813
:1017900010D002282ED098BB0868800649F20000BD
:1017A000C0F2D03058BF70470968C1F3C101C840CA
:1017B000704700BF8A6A886AC0F3051CC86ABCF11A
:1017C000000F4B6B22D000F0010002F003024042F8
:1017D000022A00EAD3006FF35F3000EE100AB8EE81
:1017E000400A15D0C2B90868800619D49FED281A9E
:1017F00023E000BF41F20020C0F27A00704700BF32
:1018000040F60010C0F23D00704700BF0020704756
:101810009FED1E1A11E000BF9FED1B1A0DE000BFE7
:10182000086849F20002C0F2D032C0F3C10022FAC7
:1018300000F001EE100AB8EE411A086B9FED153A60
:101840006FF35F2002EE100A086BC0F34620B8EE7B
:10185000422A013000EE032A00EE10CAB7EE003A29
:10186000B8EE400A81EE000A32EE031A20EE010AB9
:1018700001EE100AB8EE411A80EE010ABCEEC00A71
:1018800010EE100A704700BF0024744A0024F44A86
:101890000024744C00000039411E0020B0EB116F91
:1018A00002D00120704700BF4EF21002F023CEF2AA
:1018B000000251604EF62351CEF200010B70072159
:1018C000906011607047000090F87C10012901D1F0
:1018D000022070472421C0F8801002681368116844
:1018E00023F0005321F001011160002141661360D3
:1018F0002022C0F8802080F87C1008467047000045
:1019000090F87C20012A01D10220704770B5242272
:10191000C0F880200268D0F864E0BEF1000FD2F871
:1019200000C0136823F001031360936823F0606321
:1019300041EA0301916019D0916843F6E26E936821
:10194000C0F6000E5B0F43F6EA65C1F34266C0F6CF
:1019500000051EF80340E95C2301B3FBF1F11EF81A
:101960000630AE5D1B01B3FBF6F301E0012101235C
:10197000A0F86A102021A0F86830C2F800C0C0F8B2
:101980008010002180F87C10BDE870400846704748
:1019900010B5A8B10446D0F8800028B9002084F81A
:1019A0007C00204600F028F82420C4F8800020683D
:1019B000016821F001010160204600F021FC08B11E
:1019C000012010BDA06A10B1204601F71DF9206862
:1019D000416821F490414160816821F02A018160D1
:1019E000016841F0010101602046BDE8104000F0AF
:1019F0008FBB00000000000041F200010068C4F24B
:101A00000101884218BF704780B586B044F2E040BB
:101A1000C5F60200016941F010010161016901F0A0
:101A2000100101910199016841F001010160006814
:101A300001A900F00100019001984FF4C0600190ED
:101A4000022002900020CDE903000720059000202D
:101A5000C5F60200FEF6FCFF06B0BDE88040704708
:101A60000B464FF410514FF4507200F791BF000035
:101A700070B582B00D46044601AE00BF4FF4004180
:101A800001222046334600F783FFA8B9BDF80400C1
:101A90000007F3D54FF400413022204600F0FCF857
:101AA000013000F0B1804FF480614FF45072204655
:101AB0002B4600F76DFF08B102B070BD01AB4FF4CB
:101AC00000410122204600F763FF0028F4D1BDF851
:101AD0000400000716D40DF1060348F20D0101229F
:101AE000204600F755FFBDF804200028BDF8061079
:101AF000A5F8801602F00101A5F8821608BF084675
:101B000002B070BD4FF400413022204600F0C4F80E
:101B1000013079D04FF480614FF4507220462B464B
:101B200000F736FF0028C7D101AB4FF40041012276
:101B3000204600F72DFF0028BED1BDF804000007A5
:101B4000C9D54FF400413022204600F0A5F80130FD
:101B50005AD04FF480614FF4507220462B4600F764
:101B600017FF0028A8D101AB4FF400410122204605
:101B700000F70EFF00289FD1BDF804000007AAD58A
:101B80004FF400413022204600F086F801303BD06F
:101B90004FF480614FF4507220462B4600F7F8FE58
